{
  "contractName": "forum",
  "abi": [
    {
      "constant": true,
      "inputs": [],
      "name": "count",
      "outputs": [
        {
          "internalType": "uint256",
          "name": "",
          "type": "uint256"
        }
      ],
      "payable": false,
      "stateMutability": "view",
      "type": "function"
    },
    {
      "constant": true,
      "inputs": [
        {
          "internalType": "uint256",
          "name": "",
          "type": "uint256"
        }
      ],
      "name": "posts",
      "outputs": [
        {
          "internalType": "uint256",
          "name": "id",
          "type": "uint256"
        },
        {
          "internalType": "address",
          "name": "owner",
          "type": "address"
        },
        {
          "internalType": "string",
          "name": "message",
          "type": "string"
        },
        {
          "internalType": "uint256",
          "name": "likes",
          "type": "uint256"
        },
        {
          "internalType": "uint256",
          "name": "dislikes",
          "type": "uint256"
        }
      ],
      "payable": false,
      "stateMutability": "view",
      "type": "function"
    },
    {
      "constant": false,
      "inputs": [
        {
          "internalType": "string",
          "name": "_message",
          "type": "string"
        }
      ],
      "name": "makePost",
      "outputs": [
        {
          "internalType": "uint256",
          "name": "",
          "type": "uint256"
        }
      ],
      "payable": false,
      "stateMutability": "nonpayable",
      "type": "function"
    },
    {
      "constant": true,
      "inputs": [],
      "name": "getPosts",
      "outputs": [
        {
          "components": [
            {
              "internalType": "uint256",
              "name": "id",
              "type": "uint256"
            },
            {
              "internalType": "address",
              "name": "owner",
              "type": "address"
            },
            {
              "internalType": "string",
              "name": "message",
              "type": "string"
            },
            {
              "internalType": "uint256",
              "name": "likes",
              "type": "uint256"
            },
            {
              "internalType": "uint256",
              "name": "dislikes",
              "type": "uint256"
            }
          ],
          "internalType": "struct forum.Post[]",
          "name": "",
          "type": "tuple[]"
        }
      ],
      "payable": false,
      "stateMutability": "view",
      "type": "function"
    }
  ],
  "bytecode": "0x60806040526000805534801561001457600080fd5b506107c2806100246000396000f3fe608060405234801561001057600080fd5b506004361061004c5760003560e01c806306661abd146100515780630b1e7f831461006f57806341f3004a14610093578063ea00f39d146100a8575b600080fd5b6100596100bb565b604051610066919061064e565b60405180910390f35b61008261007d3660046104df565b6100c1565b60405161006695949392919061065c565b61009b610180565b604051610066919061063d565b6100596100b63660046104a2565b6102ce565b60005481565b6001602081815260009283526040928390208054818401546002808401805488516101009882161598909802600019011691909104601f810186900486028701860190975286865291956001600160a01b0390911694929383018282801561016a5780601f1061013f5761010080835404028352916020019161016a565b820191906000526020600020905b81548152906001019060200180831161014d57829003601f168201915b5050505050908060030154908060040154905085565b6060806000546040519080825280602002602001820160405280156101bf57816020015b6101ac61036d565b8152602001906001900390816101a45790505b50905060005b6000548110156102c757600081815260016020818152604092839020835160a08101855281548152818401546001600160a01b0316818401526002808301805487516101009782161597909702600019011691909104601f8101859004850286018501875280865292959194869492860193909283018282801561028a5780601f1061025f5761010080835404028352916020019161028a565b820191906000526020600020905b81548152906001019060200180831161026d57829003601f168201915b50505050508152602001600382015481526020016004820154815250508383815181106102b357fe5b6020908102919091010152506001016101c5565b5090505b90565b6040805160a081018252600080548083523360208085019182528486018781526060860185905260808601859052928452600180825295842085518155915195820180546001600160a01b0319166001600160a01b0390971696909617909555905180519294919261034692600285019201906103a5565b50606082015160038201556080909101516004909101555050600080546001019081905590565b6040518060a001604052806000815260200160006001600160a01b031681526020016060815260200160008152602001600081525090565b828054600181600116156101000203166002900490600052602060002090601f016020900481019282601f106103e657805160ff1916838001178555610413565b82800160010185558215610413579182015b828111156104135782518255916020019190600101906103f8565b5061041f929150610423565b5090565b6102cb91905b8082111561041f5760008155600101610429565b600082601f83011261044e57600080fd5b813561046161045c826106d6565b6106af565b9150808252602083016020830185838301111561047d57600080fd5b610488838284610722565b50505092915050565b803561049c81610768565b92915050565b6000602082840312156104b457600080fd5b813567ffffffffffffffff8111156104cb57600080fd5b6104d78482850161043d565b949350505050565b6000602082840312156104f157600080fd5b60006104d78484610491565b600061050983836105c5565b9392505050565b61051981610711565b82525050565b600061052a82610704565b6105348185610708565b935083602082028501610546856106fe565b8060005b85811015610580578484038952815161056385826104fd565b945061056e836106fe565b60209a909a019992505060010161054a565b5091979650505050505050565b600061059882610704565b6105a28185610708565b93506105b281856020860161072e565b6105bb8161075e565b9093019392505050565b805160009060a08401906105d98582610634565b5060208301516105ec6020860182610510565b5060408301518482036040860152610604828261058d565b91505060608301516106196060860182610634565b50608083015161062c6080860182610634565b509392505050565b610519816102cb565b60208082528101610509818461051f565b6020810161049c8284610634565b60a0810161066a8288610634565b6106776020830187610510565b8181036040830152610689818661058d565b90506106986060830185610634565b6106a56080830184610634565b9695505050505050565b60405181810167ffffffffffffffff811182821017156106ce57600080fd5b604052919050565b600067ffffffffffffffff8211156106ed57600080fd5b506020601f91909101601f19160190565b60200190565b5190565b90815260200190565b60006001600160a01b03821661049c565b82818337506000910152565b60005b83811015610749578181015183820152602001610731565b83811115610758576000848401525b50505050565b601f01601f191690565b610771816102cb565b811461077c57600080fd5b5056fea365627a7a7231582026230e4dcf0d9a0931b9a603ee0ee1514435554547201024d43c6d9ccce38c1d6c6578706572696d656e74616cf564736f6c63430005100040",
  "source": "pragma solidity ^0.5.0;\npragma experimental ABIEncoderV2;\n\ncontract forum {\n    uint public count = 0;\n\n    struct Post {\n        uint id;\n        address owner;\n        string message;\n        uint likes;\n        uint dislikes;\n    }\n\n    mapping (uint => Post) public posts;\n\n    \n    function makePost(string memory _message) public returns (uint) {\n        posts[count] = Post(count, msg.sender, _message, 0, 0);\n        count++;\n        return count;\n    }\n\n    function getPosts() public view returns (Post[] memory){\n      Post[] memory id = new Post[](count);\n      for (uint i = 0; i < count; i++) {\n          Post storage post = posts[i];\n          id[i] = post;\n      }\n      return id;\n  }\n}\n",
  "sourcePath": "/home/ehsan/Desktop/decentralized-forum/contract/contracts/forum.sol",
  "compiler": {
    "name": "solc",
    "version": "0.5.16+commit.9c3226ce.Emscripten.clang"
  },
  "schemaVersion": "3.4.7",
  "updatedAt": "2022-05-26T11:36:41.450Z",
  "networkType": "ethereum",
  "devdoc": {
    "methods": {}
  },
  "userdoc": {
    "methods": {}
  }
}