{
  "contractName": "forum",
  "abi": [
    {
      "constant": true,
      "inputs": [],
      "name": "count",
      "outputs": [
        {
          "internalType": "uint256",
          "name": "",
          "type": "uint256"
        }
      ],
      "payable": false,
      "stateMutability": "view",
      "type": "function"
    },
    {
      "constant": true,
      "inputs": [
        {
          "internalType": "uint256",
          "name": "",
          "type": "uint256"
        }
      ],
      "name": "posts",
      "outputs": [
        {
          "internalType": "uint256",
          "name": "id",
          "type": "uint256"
        },
        {
          "internalType": "uint256",
          "name": "ttlComments",
          "type": "uint256"
        },
        {
          "internalType": "address",
          "name": "owner",
          "type": "address"
        },
        {
          "internalType": "string",
          "name": "message",
          "type": "string"
        },
        {
          "internalType": "uint256",
          "name": "likes",
          "type": "uint256"
        },
        {
          "internalType": "uint256",
          "name": "dislikes",
          "type": "uint256"
        }
      ],
      "payable": false,
      "stateMutability": "view",
      "type": "function"
    },
    {
      "constant": true,
      "inputs": [
        {
          "internalType": "address",
          "name": "",
          "type": "address"
        }
      ],
      "name": "users",
      "outputs": [
        {
          "internalType": "address",
          "name": "userAddress",
          "type": "address"
        },
        {
          "internalType": "string",
          "name": "name",
          "type": "string"
        },
        {
          "internalType": "string",
          "name": "bio",
          "type": "string"
        },
        {
          "internalType": "uint256",
          "name": "themeColor",
          "type": "uint256"
        },
        {
          "internalType": "bool",
          "name": "exists",
          "type": "bool"
        }
      ],
      "payable": false,
      "stateMutability": "view",
      "type": "function"
    },
    {
      "constant": false,
      "inputs": [
        {
          "internalType": "string",
          "name": "_message",
          "type": "string"
        }
      ],
      "name": "makePost",
      "outputs": [
        {
          "internalType": "uint256",
          "name": "",
          "type": "uint256"
        }
      ],
      "payable": false,
      "stateMutability": "nonpayable",
      "type": "function"
    },
    {
      "constant": true,
      "inputs": [],
      "name": "getPosts",
      "outputs": [
        {
          "components": [
            {
              "internalType": "uint256",
              "name": "id",
              "type": "uint256"
            },
            {
              "internalType": "uint256",
              "name": "ttlComments",
              "type": "uint256"
            },
            {
              "internalType": "address",
              "name": "owner",
              "type": "address"
            },
            {
              "internalType": "string",
              "name": "message",
              "type": "string"
            },
            {
              "internalType": "uint256",
              "name": "likes",
              "type": "uint256"
            },
            {
              "internalType": "uint256",
              "name": "dislikes",
              "type": "uint256"
            },
            {
              "internalType": "string[]",
              "name": "comments",
              "type": "string[]"
            }
          ],
          "internalType": "struct forum.Post[]",
          "name": "",
          "type": "tuple[]"
        }
      ],
      "payable": false,
      "stateMutability": "view",
      "type": "function"
    },
    {
      "constant": false,
      "inputs": [
        {
          "internalType": "uint256",
          "name": "id",
          "type": "uint256"
        }
      ],
      "name": "likePost",
      "outputs": [
        {
          "internalType": "bool",
          "name": "values",
          "type": "bool"
        }
      ],
      "payable": false,
      "stateMutability": "nonpayable",
      "type": "function"
    },
    {
      "constant": false,
      "inputs": [
        {
          "internalType": "uint256",
          "name": "id",
          "type": "uint256"
        }
      ],
      "name": "dislikePost",
      "outputs": [
        {
          "internalType": "bool",
          "name": "values",
          "type": "bool"
        }
      ],
      "payable": false,
      "stateMutability": "nonpayable",
      "type": "function"
    },
    {
      "constant": false,
      "inputs": [
        {
          "internalType": "uint256",
          "name": "_postId",
          "type": "uint256"
        },
        {
          "internalType": "string",
          "name": "_message",
          "type": "string"
        }
      ],
      "name": "makeComment",
      "outputs": [
        {
          "internalType": "uint256",
          "name": "",
          "type": "uint256"
        }
      ],
      "payable": false,
      "stateMutability": "nonpayable",
      "type": "function"
    },
    {
      "constant": true,
      "inputs": [
        {
          "internalType": "uint256",
          "name": "postId",
          "type": "uint256"
        }
      ],
      "name": "getComments",
      "outputs": [
        {
          "internalType": "string[]",
          "name": "",
          "type": "string[]"
        }
      ],
      "payable": false,
      "stateMutability": "view",
      "type": "function"
    },
    {
      "constant": true,
      "inputs": [],
      "name": "getUserInfo",
      "outputs": [
        {
          "components": [
            {
              "internalType": "address",
              "name": "userAddress",
              "type": "address"
            },
            {
              "internalType": "string",
              "name": "name",
              "type": "string"
            },
            {
              "internalType": "string",
              "name": "bio",
              "type": "string"
            },
            {
              "internalType": "uint256",
              "name": "themeColor",
              "type": "uint256"
            },
            {
              "internalType": "bool",
              "name": "exists",
              "type": "bool"
            }
          ],
          "internalType": "struct forum.User",
          "name": "",
          "type": "tuple"
        }
      ],
      "payable": false,
      "stateMutability": "view",
      "type": "function"
    },
    {
      "constant": true,
      "inputs": [],
      "name": "userExists",
      "outputs": [
        {
          "internalType": "bool",
          "name": "",
          "type": "bool"
        }
      ],
      "payable": false,
      "stateMutability": "view",
      "type": "function"
    },
    {
      "constant": false,
      "inputs": [
        {
          "internalType": "string",
          "name": "name",
          "type": "string"
        },
        {
          "internalType": "string",
          "name": "bio",
          "type": "string"
        },
        {
          "internalType": "uint256",
          "name": "theme",
          "type": "uint256"
        }
      ],
      "name": "changeUserInfo",
      "outputs": [
        {
          "internalType": "bool",
          "name": "",
          "type": "bool"
        }
      ],
      "payable": false,
      "stateMutability": "nonpayable",
      "type": "function"
    }
  ],
  "bytecode": "0x60806040526000805534801561001457600080fd5b506113c9806100246000396000f3fe608060405234801561001057600080fd5b50600436106100b45760003560e01c8063725009d311610071578063725009d314610159578063732fa7c714610179578063a87430ba1461018c578063c7a2c2b2146101b0578063ea00f39d146101c3578063eae6d4da146101d6576100b4565b806306661abd146100b95780630b1e7f83146100d7578063158d13a4146100fc57806323edf6971461010f57806341f3004a1461012f5780635d8d158514610144575b600080fd5b6100c16101de565b6040516100ce9190611236565b60405180910390f35b6100ea6100e5366004610e72565b6101e4565b6040516100ce96959493929190611244565b6100c161010a366004610e90565b6102ab565b61012261011d366004610e72565b610303565b6040516100ce91906111f5565b6101376103f2565b6040516100ce9190611206565b61014c610624565b6040516100ce9190611225565b61016c610167366004610e72565b61079b565b6040516100ce9190611217565b61016c610187366004610e72565b6107cd565b61019f61019a366004610d9b565b6107f7565b6040516100ce95949392919061119b565b61016c6101be366004610df6565b61094a565b6100c16101d1366004610dc1565b610a03565b61016c610b2e565b60005481565b60016020818152600092835260409283902080548184015460028084015460038501805489516101009982161599909902600019011692909204601f8101879004870288018701909852878752929691956001600160a01b03909316949091908301828280156102955780601f1061026a57610100808354040283529160200191610295565b820191906000526020600020905b81548152906001019060200180831161027857829003601f168201915b5050505050908060040154908060050154905086565b600082815260016020818152604083206006018054928301808255908452818420855191936102e09391019190860190610b56565b505050600082815260016020819052604082208101805490910190555b92915050565b606060016000838152602001908152602001600020600601805480602002602001604051908101604052809291908181526020016000905b828210156103e65760008481526020908190208301805460408051601f60026000196101006001871615020190941693909304928301859004850281018501909152818152928301828280156103d25780601f106103a7576101008083540402835291602001916103d2565b820191906000526020600020905b8154815290600101906020018083116103b557829003601f168201915b50505050508152602001906001019061033b565b5050505090505b919050565b60608060005460405190808252806020026020018201604052801561043157816020015b61041e610bd4565b8152602001906001900390816104165790505b50905060005b60005481101561061d57600081815260016020818152604092839020835160e0810185528154815281840154818401526002808301546001600160a01b03168287015260038301805487516101009782161597909702600019011691909104601f810185900485028601850190965285855291949093859360608601939192908301828280156105085780601f106104dd57610100808354040283529160200191610508565b820191906000526020600020905b8154815290600101906020018083116104eb57829003601f168201915b50505050508152602001600482015481526020016005820154815260200160068201805480602002602001604051908101604052809291908181526020016000905b828210156105f55760008481526020908190208301805460408051601f60026000196101006001871615020190941693909304928301859004850281018501909152818152928301828280156105e15780601f106105b6576101008083540402835291602001916105e1565b820191906000526020600020905b8154815290600101906020018083116105c457829003601f168201915b50505050508152602001906001019061054a565b505050508152505083838151811061060957fe5b602090810291909101015250600101610437565b5090505b90565b61062c610c1a565b33600090815260026020818152604092839020835160a08101855281546001600160a01b031681526001808301805487516101009382161593909302600019011695909504601f81018590048502820185019096528581529094919385840193919290918301828280156106e15780601f106106b6576101008083540402835291602001916106e1565b820191906000526020600020905b8154815290600101906020018083116106c457829003601f168201915b5050509183525050600282810180546040805160206001841615610100026000190190931694909404601f810183900483028501830190915280845293810193908301828280156107735780601f1061074857610100808354040283529160200191610773565b820191906000526020600020905b81548152906001019060200180831161075657829003601f168201915b50505091835250506003820154602082015260049091015460ff161515604090910152905090565b6000805482116107c5575060008181526001602081905260409091206004018054820190556103ed565b5060006103ed565b6000805482116107c5575060008181526001602081905260409091206005018054820190556103ed565b6002602081815260009283526040928390208054600180830180548751601f600019948316156101000294909401909116969096049182018590048502860185019096528085526001600160a01b039091169491939283018282801561089e5780601f106108735761010080835404028352916020019161089e565b820191906000526020600020905b81548152906001019060200180831161088157829003601f168201915b50505060028085018054604080516020601f60001961010060018716150201909416959095049283018590048502810185019091528181529596959450909250908301828280156109305780601f1061090557610100808354040283529160200191610930565b820191906000526020600020905b81548152906001019060200180831161091357829003601f168201915b50505050600383015460049093015491929160ff16905085565b6040805160a08101825233808252602080830187815283850187905260608401869052600160808501819052600093845260028352948320845181546001600160a01b0319166001600160a01b0390911617815590518051939591936109b893928501929190910190610b56565b50604082015180516109d4916002840191602090910190610b56565b50606082015160038201556080909101516004909101805460ff19169115159190911790555060019392505050565b6000610a0d610bd4565b6040518060e00160405280600054815260200160008152602001336001600160a01b0316815260200184815260200160008152602001600081526020016000604051908082528060200260200182016040528015610a7f57816020015b6060815260200190600190039081610a6a5790505b50905260008054815260016020818152604092839020845181558482015192810192909255918301516002820180546001600160a01b0319166001600160a01b039092169190911790556060830151805193945084939192610ae992600385019290910190610b56565b506080820151600482015560a0820151600582015560c08201518051610b19916006840191602090910190610c54565b50506000805460010190819055949350505050565b3360009081526002602052604081206004015460ff16610b5057506000610621565b50600190565b828054600181600116156101000203166002900490600052602060002090601f016020900481019282601f10610b9757805160ff1916838001178555610bc4565b82800160010185558215610bc4579182015b82811115610bc4578251825591602001919060010190610ba9565b50610bd0929150610cad565b5090565b6040518060e00160405280600081526020016000815260200160006001600160a01b03168152602001606081526020016000815260200160008152602001606081525090565b6040518060a0016040528060006001600160a01b031681526020016060815260200160608152602001600081526020016000151581525090565b828054828255906000526020600020908101928215610ca1579160200282015b82811115610ca15782518051610c91918491602090910190610b56565b5091602001919060010190610c74565b50610bd0929150610cc7565b61062191905b80821115610bd05760008155600101610cb3565b61062191905b80821115610bd0576000610ce18282610cea565b50600101610ccd565b50805460018160011615610100020316600290046000825580601f10610d105750610d2e565b601f016020900490600052602060002090810190610d2e9190610cad565b50565b80356102fd81611369565b600082601f830112610d4d57600080fd5b8135610d60610d5b826112cc565b6112a5565b91508082526020830160208301858383011115610d7c57600080fd5b610d87838284611323565b50505092915050565b80356102fd8161137d565b600060208284031215610dad57600080fd5b6000610db98484610d31565b949350505050565b600060208284031215610dd357600080fd5b813567ffffffffffffffff811115610dea57600080fd5b610db984828501610d3c565b600080600060608486031215610e0b57600080fd5b833567ffffffffffffffff811115610e2257600080fd5b610e2e86828701610d3c565b935050602084013567ffffffffffffffff811115610e4b57600080fd5b610e5786828701610d3c565b9250506040610e6886828701610d90565b9150509250925092565b600060208284031215610e8457600080fd5b6000610db98484610d90565b60008060408385031215610ea357600080fd5b6000610eaf8585610d90565b925050602083013567ffffffffffffffff811115610ecc57600080fd5b610ed885828601610d3c565b9150509250929050565b6000610eee8383611049565b9392505050565b6000610eee8383611081565b610f0a81611307565b82525050565b6000610f1b826112fa565b610f2581856112fe565b935083602082028501610f37856112f4565b8060005b85811015610f715784840389528151610f548582610ee2565b9450610f5f836112f4565b60209a909a0199925050600101610f3b565b5091979650505050505050565b6000610f89826112fa565b610f9381856112fe565b935083602082028501610fa5856112f4565b8060005b85811015610f715784840389528151610fc28582610ee2565b9450610fcd836112f4565b60209a909a0199925050600101610fa9565b6000610fea826112fa565b610ff481856112fe565b935083602082028501611006856112f4565b8060005b85811015610f7157848403895281516110238582610ef5565b945061102e836112f4565b60209a909a019992505060010161100a565b610f0a81611312565b6000611054826112fa565b61105e81856112fe565b935061106e81856020860161132f565b6110778161135f565b9093019392505050565b805160009060e08401906110958582611192565b5060208301516110a86020860182611192565b5060408301516110bb6040860182610f01565b50606083015184820360608601526110d38282611049565b91505060808301516110e86080860182611192565b5060a08301516110fb60a0860182611192565b5060c083015184820360c08601526111138282610f7e565b95945050505050565b805160009060a08401906111308582610f01565b50602083015184820360208601526111488282611049565b915050604083015184820360408601526111628282611049565b91505060608301516111776060860182611192565b50608083015161118a6080860182611040565b509392505050565b610f0a81610621565b60a081016111a98288610f01565b81810360208301526111bb8187611049565b905081810360408301526111cf8186611049565b90506111de6060830185611192565b6111eb6080830184611040565b9695505050505050565b60208082528101610eee8184610f10565b60208082528101610eee8184610fdf565b602081016102fd8284611040565b60208082528101610eee818461111c565b602081016102fd8284611192565b60c081016112528289611192565b61125f6020830188611192565b61126c6040830187610f01565b818103606083015261127e8186611049565b905061128d6080830185611192565b61129a60a0830184611192565b979650505050505050565b60405181810167ffffffffffffffff811182821017156112c457600080fd5b604052919050565b600067ffffffffffffffff8211156112e357600080fd5b506020601f91909101601f19160190565b60200190565b5190565b90815260200190565b60006102fd82611317565b151590565b6001600160a01b031690565b82818337506000910152565b60005b8381101561134a578181015183820152602001611332565b83811115611359576000848401525b50505050565b601f01601f191690565b61137281611307565b8114610d2e57600080fd5b6113728161062156fea365627a7a723158205190ef214e54cc84bffd017d693060d3c7eacac494faf004d51dd19470b2b4156c6578706572696d656e74616cf564736f6c63430005100040",
  "source": "pragma solidity ^0.5.0;\npragma experimental ABIEncoderV2;\n\ncontract forum {\n    uint256 public count = 0;\n\n    struct Post {\n        uint256 id;\n        uint256 ttlComments;\n        address owner;\n        string message;\n        uint256 likes;\n        uint256 dislikes;\n        string[] comments;\n    }\n\n    struct User {\n        address userAddress;\n        string name;\n        string bio;\n        uint256 themeColor;\n        bool exists;\n    }\n\n    mapping(uint256 => Post) public posts;\n    mapping(address => User) public users;\n\n    function makePost(string memory _message) public returns (uint256) {\n        Post memory p = Post(\n            count,\n            0,\n            msg.sender,\n            _message,\n            0,\n            0,\n            new string[](0)\n        );\n        posts[count] = p;\n        count++;\n        return count;\n    }\n\n    function getPosts() public view returns (Post[] memory) {\n        Post[] memory id = new Post[](count);\n        for (uint256 i = 0; i < count; i++) {\n            Post storage post = posts[i];\n            id[i] = post;\n        }\n        return id;\n    }\n\n    function likePost(uint256 id) public returns (bool values) {\n        if (id >= 0 && id <= count) {\n            posts[id].likes += 1;\n            return true;\n        } else {\n            return false;\n        }\n    }\n\n    function dislikePost(uint256 id) public returns (bool values) {\n        if (id >= 0 && id <= count) {\n            posts[id].dislikes += 1;\n            return true;\n        } else {\n            return false;\n        }\n    }\n\n    function makeComment(uint256 _postId, string memory _message)\n        public\n        returns (uint256)\n    {\n        posts[_postId].comments.push(_message);\n        posts[_postId].ttlComments++;\n        return 0;\n    }\n\n    function getComments(uint256 postId) public view returns (string[] memory) {\n        return posts[postId].comments;\n    }\n\n    function getUserInfo() public view returns (User memory) {\n        return users[msg.sender];\n    }\n\n    function userExists() public view returns (bool) {\n        if (!users[msg.sender].exists) return false;\n        return true;\n    }\n\n    function changeUserInfo(\n        string memory name,\n        string memory bio,\n        uint256 theme\n    ) public returns (bool) {\n        users[msg.sender] = User(msg.sender, name, bio, theme, true);\n        return true;\n    }\n}\n",
  "sourcePath": "/home/zulfiqar/Documents/project/contract/contracts/forum.sol",
  "compiler": {
    "name": "solc",
    "version": "0.5.16+commit.9c3226ce.Emscripten.clang"
  },
  "schemaVersion": "3.4.7",
  "updatedAt": "2022-05-28T15:05:49.805Z",
  "networkType": "ethereum",
  "devdoc": {
    "methods": {}
  },
  "userdoc": {
    "methods": {}
  }
}