{
  "contractName": "forum",
  "abi": [
    {
      "constant": true,
      "inputs": [],
      "name": "count",
      "outputs": [
        {
          "internalType": "uint256",
          "name": "",
          "type": "uint256"
        }
      ],
      "payable": false,
      "stateMutability": "view",
      "type": "function"
    },
    {
      "constant": true,
      "inputs": [
        {
          "internalType": "uint256",
          "name": "",
          "type": "uint256"
        }
      ],
      "name": "posts",
      "outputs": [
        {
          "internalType": "uint256",
          "name": "id",
          "type": "uint256"
        },
        {
          "internalType": "uint256",
          "name": "ttlComments",
          "type": "uint256"
        },
        {
          "internalType": "address",
          "name": "owner",
          "type": "address"
        },
        {
          "internalType": "string",
          "name": "message",
          "type": "string"
        },
        {
          "internalType": "uint256",
          "name": "likes",
          "type": "uint256"
        },
        {
          "internalType": "uint256",
          "name": "dislikes",
          "type": "uint256"
        }
      ],
      "payable": false,
      "stateMutability": "view",
      "type": "function"
    },
    {
      "constant": false,
      "inputs": [
        {
          "internalType": "string",
          "name": "_message",
          "type": "string"
        }
      ],
      "name": "makePost",
      "outputs": [
        {
          "internalType": "uint256",
          "name": "",
          "type": "uint256"
        }
      ],
      "payable": false,
      "stateMutability": "nonpayable",
      "type": "function"
    },
    {
      "constant": true,
      "inputs": [],
      "name": "getPosts",
      "outputs": [
        {
          "components": [
            {
              "internalType": "uint256",
              "name": "id",
              "type": "uint256"
            },
            {
              "internalType": "uint256",
              "name": "ttlComments",
              "type": "uint256"
            },
            {
              "internalType": "address",
              "name": "owner",
              "type": "address"
            },
            {
              "internalType": "string",
              "name": "message",
              "type": "string"
            },
            {
              "internalType": "uint256",
              "name": "likes",
              "type": "uint256"
            },
            {
              "internalType": "uint256",
              "name": "dislikes",
              "type": "uint256"
            },
            {
              "internalType": "string[]",
              "name": "comments",
              "type": "string[]"
            }
          ],
          "internalType": "struct forum.Post[]",
          "name": "",
          "type": "tuple[]"
        }
      ],
      "payable": false,
      "stateMutability": "view",
      "type": "function"
    },
    {
      "constant": false,
      "inputs": [
        {
          "internalType": "uint256",
          "name": "id",
          "type": "uint256"
        }
      ],
      "name": "likePost",
      "outputs": [
        {
          "internalType": "bool",
          "name": "values",
          "type": "bool"
        }
      ],
      "payable": false,
      "stateMutability": "nonpayable",
      "type": "function"
    },
    {
      "constant": false,
      "inputs": [
        {
          "internalType": "uint256",
          "name": "id",
          "type": "uint256"
        }
      ],
      "name": "dislikePost",
      "outputs": [
        {
          "internalType": "bool",
          "name": "values",
          "type": "bool"
        }
      ],
      "payable": false,
      "stateMutability": "nonpayable",
      "type": "function"
    },
    {
      "constant": false,
      "inputs": [
        {
          "internalType": "uint256",
          "name": "_postId",
          "type": "uint256"
        },
        {
          "internalType": "string",
          "name": "_message",
          "type": "string"
        }
      ],
      "name": "makeComment",
      "outputs": [
        {
          "internalType": "uint256",
          "name": "",
          "type": "uint256"
        }
      ],
      "payable": false,
      "stateMutability": "nonpayable",
      "type": "function"
    },
    {
      "constant": true,
      "inputs": [
        {
          "internalType": "uint256",
          "name": "postId",
          "type": "uint256"
        }
      ],
      "name": "getComments",
      "outputs": [
        {
          "internalType": "string[]",
          "name": "",
          "type": "string[]"
        }
      ],
      "payable": false,
      "stateMutability": "view",
      "type": "function"
    }
  ],
  "bytecode": "0x60806040526000805534801561001457600080fd5b50610dd5806100246000396000f3fe608060405234801561001057600080fd5b50600436106100885760003560e01c806341f3004a1161005b57806341f3004a14610103578063725009d314610118578063732fa7c714610138578063ea00f39d1461014b57610088565b806306661abd1461008d5780630b1e7f83146100ab578063158d13a4146100d057806323edf697146100e3575b600080fd5b61009561015e565b6040516100a29190610c4b565b60405180910390f35b6100be6100b9366004610968565b610164565b6040516100a296959493929190610c59565b6100956100de366004610986565b61022b565b6100f66100f1366004610968565b610283565b6040516100a29190610c1b565b61010b610372565b6040516100a29190610c2c565b61012b610126366004610968565b6105a4565b6040516100a29190610c3d565b61012b610146366004610968565b6105d6565b61009561015936600461092b565b610600565b60005481565b60016020818152600092835260409283902080548184015460028084015460038501805489516101009982161599909902600019011692909204601f8101879004870288018701909852878752929691956001600160a01b03909316949091908301828280156102155780601f106101ea57610100808354040283529160200191610215565b820191906000526020600020905b8154815290600101906020018083116101f857829003601f168201915b5050505050908060040154908060050154905086565b60008281526001602081815260408320600601805492830180825590845281842085519193610260939101919086019061072b565b505050600082815260016020819052604082208101805490910190555b92915050565b606060016000838152602001908152602001600020600601805480602002602001604051908101604052809291908181526020016000905b828210156103665760008481526020908190208301805460408051601f60026000196101006001871615020190941693909304928301859004850281018501909152818152928301828280156103525780601f1061032757610100808354040283529160200191610352565b820191906000526020600020905b81548152906001019060200180831161033557829003601f168201915b5050505050815260200190600101906102bb565b5050505090505b919050565b6060806000546040519080825280602002602001820160405280156103b157816020015b61039e6107a9565b8152602001906001900390816103965790505b50905060005b60005481101561059d57600081815260016020818152604092839020835160e0810185528154815281840154818401526002808301546001600160a01b03168287015260038301805487516101009782161597909702600019011691909104601f810185900485028601850190965285855291949093859360608601939192908301828280156104885780601f1061045d57610100808354040283529160200191610488565b820191906000526020600020905b81548152906001019060200180831161046b57829003601f168201915b50505050508152602001600482015481526020016005820154815260200160068201805480602002602001604051908101604052809291908181526020016000905b828210156105755760008481526020908190208301805460408051601f60026000196101006001871615020190941693909304928301859004850281018501909152818152928301828280156105615780601f1061053657610100808354040283529160200191610561565b820191906000526020600020905b81548152906001019060200180831161054457829003601f168201915b5050505050815260200190600101906104ca565b505050508152505083838151811061058957fe5b6020908102919091010152506001016103b7565b5090505b90565b6000805482116105ce5750600081815260016020819052604090912060040180548201905561036d565b50600061036d565b6000805482116105ce5750600081815260016020819052604090912060050180548201905561036d565b600061060a6107a9565b6040518060e00160405280600054815260200160008152602001336001600160a01b031681526020018481526020016000815260200160008152602001600060405190808252806020026020018201604052801561067c57816020015b60608152602001906001900390816106675790505b50905260008054815260016020818152604092839020845181558482015192810192909255918301516002820180546001600160a01b0319166001600160a01b0390921691909117905560608301518051939450849391926106e69260038501929091019061072b565b506080820151600482015560a0820151600582015560c082015180516107169160068401916020909101906107ef565b50506000805460010190819055949350505050565b828054600181600116156101000203166002900490600052602060002090601f016020900481019282601f1061076c57805160ff1916838001178555610799565b82800160010185558215610799579182015b8281111561079957825182559160200191906001019061077e565b506107a5929150610848565b5090565b6040518060e00160405280600081526020016000815260200160006001600160a01b03168152602001606081526020016000815260200160008152602001606081525090565b82805482825590600052602060002090810192821561083c579160200282015b8281111561083c578251805161082c91849160209091019061072b565b509160200191906001019061080f565b506107a5929150610862565b6105a191905b808211156107a5576000815560010161084e565b6105a191905b808211156107a557600061087c8282610885565b50600101610868565b50805460018160011615610100020316600290046000825580601f106108ab57506108c9565b601f0160209004906000526020600020908101906108c99190610848565b50565b600082601f8301126108dd57600080fd5b81356108f06108eb82610ce1565b610cba565b9150808252602083016020830185838301111561090c57600080fd5b610917838284610d38565b50505092915050565b803561027d81610d7e565b60006020828403121561093d57600080fd5b813567ffffffffffffffff81111561095457600080fd5b610960848285016108cc565b949350505050565b60006020828403121561097a57600080fd5b60006109608484610920565b6000806040838503121561099957600080fd5b60006109a58585610920565b925050602083013567ffffffffffffffff8111156109c257600080fd5b6109ce858286016108cc565b9150509250929050565b60006109e48383610b3f565b9392505050565b60006109e48383610b77565b610a0081610d1c565b82525050565b6000610a1182610d0f565b610a1b8185610d13565b935083602082028501610a2d85610d09565b8060005b85811015610a675784840389528151610a4a85826109d8565b9450610a5583610d09565b60209a909a0199925050600101610a31565b5091979650505050505050565b6000610a7f82610d0f565b610a898185610d13565b935083602082028501610a9b85610d09565b8060005b85811015610a675784840389528151610ab885826109d8565b9450610ac383610d09565b60209a909a0199925050600101610a9f565b6000610ae082610d0f565b610aea8185610d13565b935083602082028501610afc85610d09565b8060005b85811015610a675784840389528151610b1985826109eb565b9450610b2483610d09565b60209a909a0199925050600101610b00565b610a0081610d27565b6000610b4a82610d0f565b610b548185610d13565b9350610b64818560208601610d44565b610b6d81610d74565b9093019392505050565b805160009060e0840190610b8b8582610c12565b506020830151610b9e6020860182610c12565b506040830151610bb160408601826109f7565b5060608301518482036060860152610bc98282610b3f565b9150506080830151610bde6080860182610c12565b5060a0830151610bf160a0860182610c12565b5060c083015184820360c0860152610c098282610a74565b95945050505050565b610a00816105a1565b602080825281016109e48184610a06565b602080825281016109e48184610ad5565b6020810161027d8284610b36565b6020810161027d8284610c12565b60c08101610c678289610c12565b610c746020830188610c12565b610c8160408301876109f7565b8181036060830152610c938186610b3f565b9050610ca26080830185610c12565b610caf60a0830184610c12565b979650505050505050565b60405181810167ffffffffffffffff81118282101715610cd957600080fd5b604052919050565b600067ffffffffffffffff821115610cf857600080fd5b506020601f91909101601f19160190565b60200190565b5190565b90815260200190565b600061027d82610d2c565b151590565b6001600160a01b031690565b82818337506000910152565b60005b83811015610d5f578181015183820152602001610d47565b83811115610d6e576000848401525b50505050565b601f01601f191690565b610d87816105a1565b81146108c957600080fdfea365627a7a723158207f38e14f8b1fabdf878f41e9e2a5b9fbcc4245a87695411bb3c0e3784582cf5d6c6578706572696d656e74616cf564736f6c63430005100040",
  "source": "pragma solidity ^0.5.0;\npragma experimental ABIEncoderV2;\n\ncontract forum {\n    uint256 public count = 0;\n\n    struct Post {\n        uint256 id;\n        uint ttlComments;\n        address owner;\n        string message;\n        uint256 likes;\n        uint256 dislikes;\n        string[] comments;\n    }\n\n    mapping(uint256 => Post) public posts;\n\n    function makePost(string memory _message) public returns (uint256) {\n        Post memory p = Post(count, 0, msg.sender, _message, 0, 0, new string[](0));\n        posts[count] = p;\n        count++;\n        return count;\n    }\n\n    function getPosts() public view returns (Post[] memory) {\n        Post[] memory id = new Post[](count);\n        for (uint256 i = 0; i < count; i++) {\n            Post storage post = posts[i];\n            id[i] = post;\n        }\n        return id;\n    }\n\n    function likePost(uint256 id) public returns (bool values) {\n        if (id >= 0 && id <= count) {\n            posts[id].likes += 1;\n            return true;\n        } else {\n            return false;\n        }\n    }\n\n    function dislikePost(uint256 id) public returns (bool values) {\n        if (id >= 0 && id <= count) {\n            posts[id].dislikes += 1;\n            return true;\n        } else {\n            return false;\n        }\n    }\n\n    function makeComment(uint _postId, string memory _message) public returns (uint) {\n        posts[_postId].comments.push( _message);\n        posts[_postId].ttlComments ++;\n        return 0;\n    }\n\n    function getComments(uint postId) public view returns (string[] memory) {\n        return posts[postId].comments;\n    }    \n}\n",
  "sourcePath": "/home/aboola/Blockchain helping material/BlockChain Assignments/Project/decentralized-forum/contract/contracts/forum.sol",
  "compiler": {
    "name": "solc",
    "version": "0.5.16+commit.9c3226ce.Emscripten.clang"
  },
  "schemaVersion": "3.4.7",
  "updatedAt": "2022-05-29T10:29:16.720Z",
  "networkType": "ethereum",
  "devdoc": {
    "methods": {}
  },
  "userdoc": {
    "methods": {}
  }
}