{
  "contractName": "forum",
  "abi": [
    {
      "constant": true,
      "inputs": [],
      "name": "count",
      "outputs": [
        {
          "internalType": "uint256",
          "name": "",
          "type": "uint256"
        }
      ],
      "payable": false,
      "stateMutability": "view",
      "type": "function"
    }
  ],
  "bytecode": "0x6080604052600a600055348015601457600080fd5b506080806100236000396000f3fe6080604052348015600f57600080fd5b506004361060285760003560e01c806306661abd14602d575b600080fd5b60336045565b60408051918252519081900360200190f35b6000548156fea265627a7a723158202bf177561d248b7a545346f12624b66b3a14c3e07d8e0e9df5d46f6b492bacd064736f6c63430005100032",
  "source": "pragma solidity ^0.5.0;\n\ncontract forum{\n    uint public count = 10;\n\n}",
  "sourcePath": "/home/zulfiqar/Documents/project/contract/contracts/forum.sol",
  "compiler": {
    "name": "solc",
    "version": "0.5.16+commit.9c3226ce.Emscripten.clang"
  },
  "schemaVersion": "3.4.7",
  "updatedAt": "2022-05-24T19:06:23.876Z",
  "networkType": "ethereum",
  "devdoc": {
    "methods": {}
  },
  "userdoc": {
    "methods": {}
  }
}